:040000000C0FFFFFE3
:0400010006063010AF
:0400020006063010AE
:040003000600502083
:0400040006002030A2
:04000500060FF0A052
:04000600060003F0FD
:040007000E0FFFFFDA
:0400080006000002EC
:04000900060000826B
:04000A000600001BD1
:04000B0007300001B9
:04000C000730008138
:04000D0007301001A7
:04000E000730108126
:04000F000E2FFFFFB2
:040010000F3FFFFFA0
:040011000E0FFFFFD0
:0400120006000001E3
:0400130006300001B2
:0400140006C000051D
:0400150006C000859C
:0400160006C010050B
:0400170006C010858A
:040018000ECFFFFF09
:0400190006001005C8
:04001A000600000CD0
:04001B0000000000E1
:04001C0000000000E0
:04001D0000000000DF
:04001E0000000000DE
:04001F0000000000DD
:0400200000000000DC
:0400210000000000DB
:0400220000000000DA
:0400230000000000D9
:0400240000000000D8
:0400250000000000D7
:0400260000000000D6
:0400270000000000D5
:00000001FF
